{
  "contractName": "MultiSignature",
  "abi": [
    {
      "constant": true,
      "inputs": [
        {
          "name": "",
          "type": "uint256"
        }
      ],
      "name": "owners",
      "outputs": [
        {
          "name": "",
          "type": "address"
        }
      ],
      "payable": false,
      "stateMutability": "view",
      "type": "function"
    },
    {
      "constant": true,
      "inputs": [],
      "name": "totalAmount",
      "outputs": [
        {
          "name": "",
          "type": "uint256"
        }
      ],
      "payable": false,
      "stateMutability": "view",
      "type": "function"
    },
    {
      "constant": true,
      "inputs": [
        {
          "name": "",
          "type": "uint256"
        }
      ],
      "name": "withdrawList",
      "outputs": [
        {
          "name": "",
          "type": "bytes32"
        }
      ],
      "payable": false,
      "stateMutability": "view",
      "type": "function"
    },
    {
      "constant": true,
      "inputs": [
        {
          "name": "",
          "type": "address"
        }
      ],
      "name": "ownersMapping",
      "outputs": [
        {
          "name": "",
          "type": "bool"
        }
      ],
      "payable": false,
      "stateMutability": "view",
      "type": "function"
    },
    {
      "constant": true,
      "inputs": [
        {
          "name": "",
          "type": "address"
        },
        {
          "name": "",
          "type": "uint256"
        }
      ],
      "name": "investorsuccess",
      "outputs": [
        {
          "name": "",
          "type": "bytes32"
        }
      ],
      "payable": false,
      "stateMutability": "view",
      "type": "function"
    },
    {
      "constant": true,
      "inputs": [
        {
          "name": "",
          "type": "bytes32"
        }
      ],
      "name": "transact",
      "outputs": [
        {
          "name": "destination",
          "type": "address"
        },
        {
          "name": "value",
          "type": "uint256"
        },
        {
          "name": "data",
          "type": "bytes"
        },
        {
          "name": "executed",
          "type": "bool"
        }
      ],
      "payable": false,
      "stateMutability": "view",
      "type": "function"
    },
    {
      "constant": true,
      "inputs": [
        {
          "name": "",
          "type": "uint256"
        }
      ],
      "name": "investor",
      "outputs": [
        {
          "name": "",
          "type": "address"
        }
      ],
      "payable": false,
      "stateMutability": "view",
      "type": "function"
    },
    {
      "constant": true,
      "inputs": [
        {
          "name": "",
          "type": "address"
        }
      ],
      "name": "investorMapping",
      "outputs": [
        {
          "name": "",
          "type": "uint256"
        }
      ],
      "payable": false,
      "stateMutability": "view",
      "type": "function"
    },
    {
      "constant": true,
      "inputs": [
        {
          "name": "",
          "type": "address"
        },
        {
          "name": "",
          "type": "uint256"
        }
      ],
      "name": "investorMap",
      "outputs": [
        {
          "name": "",
          "type": "bytes32"
        }
      ],
      "payable": false,
      "stateMutability": "view",
      "type": "function"
    },
    {
      "inputs": [
        {
          "name": "_owners",
          "type": "address[]"
        }
      ],
      "payable": true,
      "stateMutability": "payable",
      "type": "constructor"
    },
    {
      "anonymous": false,
      "inputs": [
        {
          "indexed": false,
          "name": "acc",
          "type": "address"
        }
      ],
      "name": "AddAdmin",
      "type": "event"
    },
    {
      "anonymous": false,
      "inputs": [
        {
          "indexed": false,
          "name": "acc",
          "type": "address"
        }
      ],
      "name": "RemoveAdmin",
      "type": "event"
    },
    {
      "anonymous": false,
      "inputs": [
        {
          "indexed": false,
          "name": "txnhsh",
          "type": "bytes32"
        },
        {
          "indexed": false,
          "name": "sender",
          "type": "address"
        }
      ],
      "name": "TransactionHashGenerated",
      "type": "event"
    },
    {
      "constant": false,
      "inputs": [
        {
          "name": "super_admin",
          "type": "address"
        }
      ],
      "name": "setRootAdmin",
      "outputs": [],
      "payable": false,
      "stateMutability": "nonpayable",
      "type": "function"
    },
    {
      "constant": false,
      "inputs": [
        {
          "name": "super_admin",
          "type": "address"
        }
      ],
      "name": "setAdmin",
      "outputs": [],
      "payable": false,
      "stateMutability": "nonpayable",
      "type": "function"
    },
    {
      "constant": false,
      "inputs": [
        {
          "name": "_newAdmin",
          "type": "address"
        }
      ],
      "name": "addAdmin",
      "outputs": [],
      "payable": false,
      "stateMutability": "nonpayable",
      "type": "function"
    },
    {
      "constant": true,
      "inputs": [
        {
          "name": "admin",
          "type": "address"
        }
      ],
      "name": "isAdmin",
      "outputs": [
        {
          "name": "",
          "type": "bool"
        }
      ],
      "payable": false,
      "stateMutability": "view",
      "type": "function"
    },
    {
      "constant": false,
      "inputs": [
        {
          "name": "_rmAdmin",
          "type": "address"
        }
      ],
      "name": "removeAdmin",
      "outputs": [],
      "payable": false,
      "stateMutability": "nonpayable",
      "type": "function"
    },
    {
      "constant": true,
      "inputs": [],
      "name": "investorList",
      "outputs": [
        {
          "name": "",
          "type": "address[]"
        }
      ],
      "payable": false,
      "stateMutability": "view",
      "type": "function"
    },
    {
      "constant": true,
      "inputs": [],
      "name": "adminList",
      "outputs": [
        {
          "name": "",
          "type": "address[]"
        }
      ],
      "payable": false,
      "stateMutability": "view",
      "type": "function"
    },
    {
      "constant": false,
      "inputs": [],
      "name": "fund",
      "outputs": [
        {
          "name": "",
          "type": "bool"
        }
      ],
      "payable": true,
      "stateMutability": "payable",
      "type": "function"
    },
    {
      "constant": true,
      "inputs": [],
      "name": "getTotalBalance",
      "outputs": [
        {
          "name": "",
          "type": "uint256"
        }
      ],
      "payable": false,
      "stateMutability": "view",
      "type": "function"
    },
    {
      "constant": true,
      "inputs": [
        {
          "name": "invest",
          "type": "address"
        }
      ],
      "name": "getinvestedBalance",
      "outputs": [
        {
          "name": "",
          "type": "uint256"
        }
      ],
      "payable": false,
      "stateMutability": "view",
      "type": "function"
    },
    {
      "constant": false,
      "inputs": [
        {
          "name": "invest",
          "type": "bytes32"
        }
      ],
      "name": "confirm",
      "outputs": [],
      "payable": false,
      "stateMutability": "nonpayable",
      "type": "function"
    },
    {
      "constant": true,
      "inputs": [],
      "name": "getlist",
      "outputs": [
        {
          "name": "",
          "type": "bytes32[]"
        }
      ],
      "payable": false,
      "stateMutability": "view",
      "type": "function"
    },
    {
      "constant": true,
      "inputs": [],
      "name": "getinvestorcount",
      "outputs": [
        {
          "name": "",
          "type": "uint256"
        }
      ],
      "payable": false,
      "stateMutability": "view",
      "type": "function"
    },
    {
      "constant": true,
      "inputs": [],
      "name": "successtransact",
      "outputs": [
        {
          "name": "",
          "type": "uint256"
        }
      ],
      "payable": false,
      "stateMutability": "view",
      "type": "function"
    },
    {
      "constant": true,
      "inputs": [],
      "name": "getwithdraw",
      "outputs": [
        {
          "name": "",
          "type": "bytes32[]"
        }
      ],
      "payable": false,
      "stateMutability": "view",
      "type": "function"
    },
    {
      "constant": true,
      "inputs": [
        {
          "name": "txnhash",
          "type": "bytes32"
        }
      ],
      "name": "getstatus",
      "outputs": [
        {
          "name": "",
          "type": "bool"
        }
      ],
      "payable": false,
      "stateMutability": "view",
      "type": "function"
    },
    {
      "constant": false,
      "inputs": [
        {
          "name": "amt",
          "type": "uint256"
        },
        {
          "name": "data",
          "type": "bytes"
        }
      ],
      "name": "withdraw",
      "outputs": [
        {
          "name": "",
          "type": "bytes32"
        }
      ],
      "payable": true,
      "stateMutability": "payable",
      "type": "function"
    },
    {
      "constant": false,
      "inputs": [],
      "name": "destroy",
      "outputs": [],
      "payable": false,
      "stateMutability": "nonpayable",
      "type": "function"
    },
    {
      "constant": true,
      "inputs": [
        {
          "name": "txn",
          "type": "bytes32"
        }
      ],
      "name": "getdetails",
      "outputs": [
        {
          "name": "",
          "type": "address"
        },
        {
          "name": "",
          "type": "uint256"
        },
        {
          "name": "",
          "type": "bytes"
        },
        {
          "name": "",
          "type": "bool"
        }
      ],
      "payable": false,
      "stateMutability": "view",
      "type": "function"
    },
    {
      "constant": true,
      "inputs": [
        {
          "name": "invest",
          "type": "address"
        }
      ],
      "name": "getsuccesscount",
      "outputs": [
        {
          "name": "",
          "type": "uint256"
        }
      ],
      "payable": false,
      "stateMutability": "view",
      "type": "function"
    },
    {
      "constant": true,
      "inputs": [
        {
          "name": "invest",
          "type": "address"
        }
      ],
      "name": "transactList",
      "outputs": [
        {
          "name": "",
          "type": "bytes32[]"
        }
      ],
      "payable": false,
      "stateMutability": "view",
      "type": "function"
    },
    {
      "constant": true,
      "inputs": [
        {
          "name": "",
          "type": "uint256"
        }
      ],
      "name": "transactList",
      "outputs": [
        {
          "name": "",
          "type": "bytes32"
        }
      ],
      "payable": false,
      "stateMutability": "view",
      "type": "function"
    }
  ],
  "bytecode": "0x6080604052604051620027d1380380620027d183398101806040528101908080518201929190505050600060018251101515156200003c57600080fd5b600090505b815181101562000177576002600083838151811015156200005e57fe5b9060200190602002015173ffffffffffffffffffffffffffffffffffffffff1673ffffffffffffffffffffffffffffffffffffffff16815260200190815260200160002060009054906101000a900460ff16158015620000ed575060008282815181101515620000ca57fe5b9060200190602002015173ffffffffffffffffffffffffffffffffffffffff1614155b1515620000f957600080fd5b60016002600084848151811015156200010e57fe5b9060200190602002015173ffffffffffffffffffffffffffffffffffffffff1673ffffffffffffffffffffffffffffffffffffffff16815260200190815260200160002060006101000a81548160ff021916908315150217905550808060010191505062000041565b81600490805190602001906200018f92919062000198565b5050506200026d565b82805482825590600052602060002090810192821562000214579160200282015b82811115620002135782518260006101000a81548173ffffffffffffffffffffffffffffffffffffffff021916908373ffffffffffffffffffffffffffffffffffffffff16021790555091602001919060010190620001b9565b5b50905062000223919062000227565b5090565b6200026a91905b808211156200026657600081816101000a81549073ffffffffffffffffffffffffffffffffffffffff0219169055506001016200022e565b5090565b90565b612554806200027d6000396000f30060806040526004361061018b576000357c0100000000000000000000000000000000000000000000000000000000900463ffffffff168063025e7c2714610190578063030ba25d146101fd57806304ffd1ea1461027f57806306edbc25146102c857806312b583491461030b5780631785f53c146103365780631a39d8ef1461037957806320890246146103a457806324d7806c146103fb57806333d22a061461045657806339590fc01461049f5780633f58b438146104f657806347dc424e146105625780635bc89c6d146105ce57806364ba6ffe146106295780637048027514610672578063704b6c02146106b55780637548f783146106f8578063790532f914610723578063797af627146107bb57806383197ef0146107ec578063907fd91f146108035780639b48b0a71461086f578063a1f8adac146108d8578063b60d428814610944578063be646da114610966578063c3d9053b14610a55578063d199258914610ac2578063d65f85ff14610aed578063dd63c74a14610b44578063f20051c214610c33575b600080fd5b34801561019c57600080fd5b506101bb60048036038101908080359060200190929190505050610c9c565b604051808273ffffffffffffffffffffffffffffffffffffffff1673ffffffffffffffffffffffffffffffffffffffff16815260200191505060405180910390f35b61026160048036038101908080359060200190929190803590602001908201803590602001908080601f0160208091040260200160405190810160405280939291908181526020018383808284378201915050505050509192919290505050610cda565b60405180826000191660001916815260200191505060405180910390f35b34801561028b57600080fd5b506102ae6004803603810190808035600019169060200190929190505050611067565b604051808215151515815260200191505060405180910390f35b3480156102d457600080fd5b50610309600480360381019080803573ffffffffffffffffffffffffffffffffffffffff16906020019092919050505061109c565b005b34801561031757600080fd5b506103206110f4565b6040518082815260200191505060405180910390f35b34801561034257600080fd5b50610377600480360381019080803573ffffffffffffffffffffffffffffffffffffffff1690602001909291905050506110fd565b005b34801561038557600080fd5b5061038e611388565b6040518082815260200191505060405180910390f35b3480156103b057600080fd5b506103e5600480360381019080803573ffffffffffffffffffffffffffffffffffffffff16906020019092919050505061138e565b6040518082815260200191505060405180910390f35b34801561040757600080fd5b5061043c600480360381019080803573ffffffffffffffffffffffffffffffffffffffff1690602001909291905050506113d7565b604051808215151515815260200191505060405180910390f35b34801561046257600080fd5b506104816004803603810190808035906020019092919050505061142d565b60405180826000191660001916815260200191505060405180910390f35b3480156104ab57600080fd5b506104e0600480360381019080803573ffffffffffffffffffffffffffffffffffffffff169060200190929190505050611450565b6040518082815260200191505060405180910390f35b34801561050257600080fd5b5061050b61149c565b6040518080602001828103825283818151815260200191508051906020019060200280838360005b8381101561054e578082015181840152602081019050610533565b505050509050019250505060405180910390f35b34801561056e57600080fd5b5061057761152a565b6040518080602001828103825283818151815260200191508051906020019060200280838360005b838110156105ba57808201518184015260208101905061059f565b505050509050019250505060405180910390f35b3480156105da57600080fd5b5061060f600480360381019080803573ffffffffffffffffffffffffffffffffffffffff169060200190929190505050611586565b604051808215151515815260200191505060405180910390f35b34801561063557600080fd5b50610654600480360381019080803590602001909291905050506115a6565b60405180826000191660001916815260200191505060405180910390f35b34801561067e57600080fd5b506106b3600480360381019080803573ffffffffffffffffffffffffffffffffffffffff1690602001909291905050506115c9565b005b3480156106c157600080fd5b506106f6600480360381019080803573ffffffffffffffffffffffffffffffffffffffff1690602001909291905050506118bb565b005b34801561070457600080fd5b5061070d611957565b6040518082815260200191505060405180910390f35b34801561072f57600080fd5b50610764600480360381019080803573ffffffffffffffffffffffffffffffffffffffff169060200190929190505050611964565b6040518080602001828103825283818151815260200191508051906020019060200280838360005b838110156107a757808201518184015260208101905061078c565b505050509050019250505060405180910390f35b3480156107c757600080fd5b506107ea60048036038101908080356000191690602001909291905050506119ff565b005b3480156107f857600080fd5b50610801611e48565b005b34801561080f57600080fd5b50610818611edb565b6040518080602001828103825283818151815260200191508051906020019060200280838360005b8381101561085b578082015181840152602081019050610840565b505050509050019250505060405180910390f35b34801561087b57600080fd5b506108ba600480360381019080803573ffffffffffffffffffffffffffffffffffffffff16906020019092919080359060200190929190505050611f37565b60405180826000191660001916815260200191505060405180910390f35b3480156108e457600080fd5b506108ed611f67565b6040518080602001828103825283818151815260200191508051906020019060200280838360005b83811015610930578082015181840152602081019050610915565b505050509050019250505060405180910390f35b61094c611ff5565b604051808215151515815260200191505060405180910390f35b34801561097257600080fd5b50610995600480360381019080803560001916906020019092919050505061212d565b604051808573ffffffffffffffffffffffffffffffffffffffff1673ffffffffffffffffffffffffffffffffffffffff1681526020018481526020018060200183151515158152602001828103825284818151815260200191508051906020019080838360005b83811015610a175780820151818401526020810190506109fc565b50505050905090810190601f168015610a445780820380516001836020036101000a031916815260200191505b509550505050505060405180910390f35b348015610a6157600080fd5b50610a8060048036038101908080359060200190929190505050612222565b604051808273ffffffffffffffffffffffffffffffffffffffff1673ffffffffffffffffffffffffffffffffffffffff16815260200191505060405180910390f35b348015610ace57600080fd5b50610ad7612260565b6040518082815260200191505060405180910390f35b348015610af957600080fd5b50610b2e600480360381019080803573ffffffffffffffffffffffffffffffffffffffff16906020019092919050505061226d565b6040518082815260200191505060405180910390f35b348015610b5057600080fd5b50610b736004803603810190808035600019169060200190929190505050612285565b604051808573ffffffffffffffffffffffffffffffffffffffff1673ffffffffffffffffffffffffffffffffffffffff1681526020018481526020018060200183151515158152602001828103825284818151815260200191508051906020019080838360005b83811015610bf5578082015181840152602081019050610bda565b50505050905090810190601f168015610c225780820380516001836020036101000a031916815260200191505b509550505050505060405180910390f35b348015610c3f57600080fd5b50610c7e600480360381019080803573ffffffffffffffffffffffffffffffffffffffff169060200190929190803590602001909291905050506123df565b60405180826000191660001916815260200191505060405180910390f35b600481815481101515610cab57fe5b906000526020600020016000915054906101000a900473ffffffffffffffffffffffffffffffffffffffff1681565b600080336000600160008373ffffffffffffffffffffffffffffffffffffffff1673ffffffffffffffffffffffffffffffffffffffff16815260200190815260200160002054111515610d2c57600080fd5b84600160003373ffffffffffffffffffffffffffffffffffffffff1673ffffffffffffffffffffffffffffffffffffffff168152602001908152602001600020548111151515610d7b57600080fd5b6004338787604051808580548015610de857602002820191906000526020600020905b8160009054906101000a900473ffffffffffffffffffffffffffffffffffffffff1673ffffffffffffffffffffffffffffffffffffffff1681526020019060010190808311610d9e575b50508473ffffffffffffffffffffffffffffffffffffffff1673ffffffffffffffffffffffffffffffffffffffff166c0100000000000000000000000002815260140183815260200182805190602001908083835b602083101515610e625780518252602082019150602081019050602083039250610e3d565b6001836020036101000a038019825116818451168082178552505050505050905001945050505050604051809103902092503360066000856000191660001916815260200190815260200160002060000160006101000a81548173ffffffffffffffffffffffffffffffffffffffff021916908373ffffffffffffffffffffffffffffffffffffffff1602179055508560066000856000191660001916815260200190815260200160002060010181905550846006600085600019166000191681526020019081526020016000206002019080519060200190610f4692919061240f565b50600a839080600181540180825580915050906001820390600052602060002001600090919290919091509060001916905550600760003373ffffffffffffffffffffffffffffffffffffffff1673ffffffffffffffffffffffffffffffffffffffff1681526020019081526020016000208390806001815401808255809150509060018203906000526020600020016000909192909190915090600019169055507ffef670251c667136c5c350a6a79c540137ea6cfd67d75efdc792021099bab47a83336040518083600019166000191681526020018273ffffffffffffffffffffffffffffffffffffffff1673ffffffffffffffffffffffffffffffffffffffff1681526020019250505060405180910390a182935050505092915050565b600060066000836000191660001916815260200190815260200160002060030160009054906101000a900460ff169050919050565b60006004805490501415156110b057600080fd5b80600360006101000a81548173ffffffffffffffffffffffffffffffffffffffff021916908373ffffffffffffffffffffffffffffffffffffffff16021790555050565b60008054905090565b6000600260003373ffffffffffffffffffffffffffffffffffffffff1673ffffffffffffffffffffffffffffffffffffffff16815260200190815260200160002060009054906101000a900460ff16151561115757600080fd5b81600260008273ffffffffffffffffffffffffffffffffffffffff1673ffffffffffffffffffffffffffffffffffffffff16815260200190815260200160002060009054906101000a900460ff1615156111b057600080fd5b823373ffffffffffffffffffffffffffffffffffffffff168173ffffffffffffffffffffffffffffffffffffffff16141515156111ec57600080fd5b600092505b600480549050831015611381578373ffffffffffffffffffffffffffffffffffffffff1660048481548110151561122457fe5b9060005260206000200160009054906101000a900473ffffffffffffffffffffffffffffffffffffffff1673ffffffffffffffffffffffffffffffffffffffff1614156113745760048381548110151561127a57fe5b9060005260206000200160006101000a81549073ffffffffffffffffffffffffffffffffffffffff0219169055600260008573ffffffffffffffffffffffffffffffffffffffff1673ffffffffffffffffffffffffffffffffffffffff16815260200190815260200160002060006101000a81549060ff0219169055600480548091906001900361130b919061248f565b507f753f40ca3312b2408759a67875b367955e7baa221daf08aa3d643d96202ac12b84604051808273ffffffffffffffffffffffffffffffffffffffff1673ffffffffffffffffffffffffffffffffffffffff16815260200191505060405180910390a1611382565b82806001019350506111f1565b5b50505050565b60005481565b6000600160008373ffffffffffffffffffffffffffffffffffffffff1673ffffffffffffffffffffffffffffffffffffffff168152602001908152602001600020549050919050565b6000600260008373ffffffffffffffffffffffffffffffffffffffff1673ffffffffffffffffffffffffffffffffffffffff16815260200190815260200160002060009054906101000a900460ff169050919050565b600a8181548110151561143c57fe5b906000526020600020016000915090505481565b6000600860008373ffffffffffffffffffffffffffffffffffffffff1673ffffffffffffffffffffffffffffffffffffffff168152602001908152602001600020805490509050919050565b6060600480548060200260200160405190810160405280929190818152602001828054801561152057602002820191906000526020600020905b8160009054906101000a900473ffffffffffffffffffffffffffffffffffffffff1673ffffffffffffffffffffffffffffffffffffffff16815260200190600101908083116114d6575b5050505050905090565b6060600980548060200260200160405190810160405280929190818152602001828054801561157c57602002820191906000526020600020905b81546000191681526020019060010190808311611564575b5050505050905090565b60026020528060005260406000206000915054906101000a900460ff1681565b6009818154811015156115b557fe5b906000526020600020016000915090505481565b6000600260003373ffffffffffffffffffffffffffffffffffffffff1673ffffffffffffffffffffffffffffffffffffffff16815260200190815260200160002060009054906101000a900460ff16151561162357600080fd5b81600260008273ffffffffffffffffffffffffffffffffffffffff1673ffffffffffffffffffffffffffffffffffffffff16815260200190815260200160002060009054906101000a900460ff1615151561167d57600080fd5b60048390806001815401808255809150509060018203906000526020600020016000909192909190916101000a81548173ffffffffffffffffffffffffffffffffffffffff021916908373ffffffffffffffffffffffffffffffffffffffff160217905550506001600260008573ffffffffffffffffffffffffffffffffffffffff1673ffffffffffffffffffffffffffffffffffffffff16815260200190815260200160002060006101000a81548160ff0219169083151502179055507fad6de4452a631e641cb59902236607946ce9272b9b981f2f80e8d129cb9084ba83604051808273ffffffffffffffffffffffffffffffffffffffff1673ffffffffffffffffffffffffffffffffffffffff16815260200191505060405180910390a1600091505b6009805490508210156118b65760001515600660006009858154811015156117c757fe5b90600052602060002001546000191660001916815260200190815260200160002060030160009054906101000a900460ff16151514156118a9576006600060098481548110151561181457fe5b906000526020600020015460001916600019168152602001908152602001600020600080820160006101000a81549073ffffffffffffffffffffffffffffffffffffffff0219169055600182016000905560028201600061187591906124bb565b6003820160006101000a81549060ff0219169055505060098281548110151561189a57fe5b90600052602060002001600090555b81806001019250506117a3565b505050565b600260003373ffffffffffffffffffffffffffffffffffffffff1673ffffffffffffffffffffffffffffffffffffffff16815260200190815260200160002060009054906101000a900460ff16151561191357600080fd5b80600360006101000a81548173ffffffffffffffffffffffffffffffffffffffff021916908373ffffffffffffffffffffffffffffffffffffffff16021790555050565b6000600580549050905090565b6060600760008373ffffffffffffffffffffffffffffffffffffffff1673ffffffffffffffffffffffffffffffffffffffff1681526020019081526020016000208054806020026020016040519081016040528092919081815260200182805480156119f357602002820191906000526020600020905b815460001916815260200190600101908083116119db575b50505050509050919050565b600080600260003373ffffffffffffffffffffffffffffffffffffffff1673ffffffffffffffffffffffffffffffffffffffff16815260200190815260200160002060009054906101000a900460ff161515611a5a57600080fd5b600160066000856000191660001916815260200190815260200160002060040160003373ffffffffffffffffffffffffffffffffffffffff1673ffffffffffffffffffffffffffffffffffffffff16815260200190815260200160002060006101000a81548160ff02191690831515021790555060009150600090505b600480549050811015611ba657600115156006600085600019166000191681526020019081526020016000206004016000600484815481101515611b1757fe5b9060005260206000200160009054906101000a900473ffffffffffffffffffffffffffffffffffffffff1673ffffffffffffffffffffffffffffffffffffffff1673ffffffffffffffffffffffffffffffffffffffff16815260200190815260200160002060009054906101000a900460ff1615151415611b99576001820191505b8080600101915050611ad7565b600480549050821415611e435760066000846000191660001916815260200190815260200160002060000160009054906101000a900473ffffffffffffffffffffffffffffffffffffffff1673ffffffffffffffffffffffffffffffffffffffff166108fc600660008660001916600019168152602001908152602001600020600101549081150290604051600060405180830381858888f19350505050158015611c55573d6000803e3d6000fd5b50600160066000856000191660001916815260200190815260200160002060030160006101000a81548160ff02191690831515021790555060066000846000191660001916815260200190815260200160002060010154600080828254039250508190555060098390806001815401808255809150509060018203906000526020600020016000909192909190915090600019169055506008600060066000866000191660001916815260200190815260200160002060000160009054906101000a900473ffffffffffffffffffffffffffffffffffffffff1673ffffffffffffffffffffffffffffffffffffffff1673ffffffffffffffffffffffffffffffffffffffff168152602001908152602001600020839080600181540180825580915050906001820390600052602060002001600090919290919091509060001916905550600660008460001916600019168152602001908152602001600020600101546001600060066000876000191660001916815260200190815260200160002060000160009054906101000a900473ffffffffffffffffffffffffffffffffffffffff1673ffffffffffffffffffffffffffffffffffffffff1673ffffffffffffffffffffffffffffffffffffffff168152602001908152602001600020600082825403925050819055505b505050565b600260003373ffffffffffffffffffffffffffffffffffffffff1673ffffffffffffffffffffffffffffffffffffffff16815260200190815260200160002060009054906101000a900460ff161515611ea057600080fd5b600360009054906101000a900473ffffffffffffffffffffffffffffffffffffffff1673ffffffffffffffffffffffffffffffffffffffff16ff5b6060600a805480602002602001604051908101604052809291908181526020018280548015611f2d57602002820191906000526020600020905b81546000191681526020019060010190808311611f15575b5050505050905090565b600860205281600052604060002081815481101515611f5257fe5b90600052602060002001600091509150505481565b60606005805480602002602001604051908101604052809291908181526020018280548015611feb57602002820191906000526020600020905b8160009054906101000a900473ffffffffffffffffffffffffffffffffffffffff1673ffffffffffffffffffffffffffffffffffffffff1681526020019060010190808311611fa1575b5050505050905090565b6000600260003373ffffffffffffffffffffffffffffffffffffffff1673ffffffffffffffffffffffffffffffffffffffff16815260200190815260200160002060009054906101000a900460ff1615151561205057600080fd5b600034111515612063576000905061212a565b34600080828254019250508190555034600160003373ffffffffffffffffffffffffffffffffffffffff1673ffffffffffffffffffffffffffffffffffffffff1681526020019081526020016000206000828254019250508190555060053390806001815401808255809150509060018203906000526020600020016000909192909190916101000a81548173ffffffffffffffffffffffffffffffffffffffff021916908373ffffffffffffffffffffffffffffffffffffffff16021790555050600190505b90565b60066020528060005260406000206000915090508060000160009054906101000a900473ffffffffffffffffffffffffffffffffffffffff1690806001015490806002018054600181600116156101000203166002900480601f0160208091040260200160405190810160405280929190818152602001828054600181600116156101000203166002900480156122055780601f106121da57610100808354040283529160200191612205565b820191906000526020600020905b8154815290600101906020018083116121e857829003601f168201915b5050505050908060030160009054906101000a900460ff16905084565b60058181548110151561223157fe5b906000526020600020016000915054906101000a900473ffffffffffffffffffffffffffffffffffffffff1681565b6000600980549050905090565b60016020528060005260406000206000915090505481565b6000806060600060066000866000191660001916815260200190815260200160002060000160009054906101000a900473ffffffffffffffffffffffffffffffffffffffff166006600087600019166000191681526020019081526020016000206001015460066000886000191660001916815260200190815260200160002060020160066000896000191660001916815260200190815260200160002060030160009054906101000a900460ff16818054600181600116156101000203166002900480601f0160208091040260200160405190810160405280929190818152602001828054600181600116156101000203166002900480156123c95780601f1061239e576101008083540402835291602001916123c9565b820191906000526020600020905b8154815290600101906020018083116123ac57829003601f168201915b5050505050915093509350935093509193509193565b6007602052816000526040600020818154811015156123fa57fe5b90600052602060002001600091509150505481565b828054600181600116156101000203166002900490600052602060002090601f016020900481019282601f1061245057805160ff191683800117855561247e565b8280016001018555821561247e579182015b8281111561247d578251825591602001919060010190612462565b5b50905061248b9190612503565b5090565b8154818355818111156124b6578183600052602060002091820191016124b59190612503565b5b505050565b50805460018160011615610100020316600290046000825580601f106124e15750612500565b601f0160209004906000526020600020908101906124ff9190612503565b5b50565b61252591905b80821115612521576000816000905550600101612509565b5090565b905600a165627a7a72305820df78a550b1e405a4ee7d40f70d9680e3cb3da175345cb4b1831512b91197ce190029",
  "source": "pragma solidity ^0.4.23;\n\n\ncontract MultiSignature {\n\n    uint256 public totalAmount;    //owner balance\n    mapping(address => uint) public investorMapping;    // mapping the investor with their invested amount\n    mapping(address => bool) public ownersMapping;    // mapping the owner whether the owner is true of false which means active or not\n    address private superadmin;        // Super admin address\n    address[] public owners;    // Owner Address List\n    address[] public investor;    // Investor address list\n    /*\n     * @desc:  Transaction Structure is used to store the transaction details.\n     * @attributes : destination => Receiver Address\n     * @attributes : value @params => Transferred Amount\n     * @attributes : data  => Name for the Purpose of Transaction\n     * @attributes : executed => Status of the Transaction\n     * @attributes : approval => Number of Owners Approved will be mapped to true or false i.e. approved or rejected\n    */\n\n    struct Transaction  {\n        address destination;\n        uint value;\n        bytes data;\n        bool executed;\n        mapping(address => bool) approval;\n\n    }\n\n    mapping(bytes32 => Transaction) public transact;    // Transaction hash mapped for each transaction\n    mapping(address => bytes32[]) public investorMap;    // Transaction hash for the transaction the investor invested\n    mapping(address => bytes32[]) public investorsuccess;    // Transaction hash that has mapped to the investor if it is successfull\n    bytes32[] public transactList;    // Total Transaction List\n    bytes32[] public withdrawList;    // Once the investor requested , transaction hash will be stored\n\n    /*\n     * @desc: The following events are used to easy notification in the js\n     */\n    event AddAdmin(address acc);\n    event RemoveAdmin(address acc);\n    event TransactionHashGenerated(bytes32 txnhsh, address sender);\n\n    /*\n     * @desc: It is check whether the given address is owner or not\n     */\n    modifier isAnyOwner() {\n\n        require(ownersMapping[msg.sender]);\n        _;\n    }\n\n    /*\n     * @desc: It is check whether the given address is not a owner or not\n     */\n    modifier isNotExistOwner(address acc){\n        require(!ownersMapping[acc]);\n        _;\n\n    }\n\n\n    /*\n     * @desc:  It is check whether the given address and the sender is same or not\n     */\n    modifier isnotSame(address acc){\n        require(acc != msg.sender);\n        _;\n\n    }\n\n\n    /*\n     * @desc: It is check whether the given address is not a owner or not\n     */\n    modifier isNotOwner(){\n        require(!ownersMapping[msg.sender]);\n        _;\n\n    }\n\n    /*\n     * @desc: It is check whether the given address is  a investor or not\n     */\n    modifier isInvestor(address acc){\n        require(investorMapping[acc] > 0);\n        _;\n\n    }\n\n    /*\n     * @desc: It is check whether the given value is within the limit or not\n     */\n    modifier isLimit(uint amt){\n        require(amt <= investorMapping[msg.sender]);\n        _;\n\n    }\n\n    /*\n     * @desc: It is check whether the given value is owner or not\n     */\n    modifier isOwner(address acc){\n        require(ownersMapping[acc]);\n        _;\n    }\n\n\n    /*\n \t * @desc: It is a constructor to given a list of owners as an argument and initialized\n \t * @param: _owners => List of the Addresses who are referred as ADMIN\n     */\n\n    constructor(address[] _owners) payable public {\n        require(_owners.length >= 1);\n        for (uint i = 0; i < _owners.length; i++) {\n            require(!ownersMapping[_owners[i]] && _owners[i] != 0);\n            ownersMapping[_owners[i]] = true;\n        }\n        owners = _owners;\n    }\n\n\n    /*\n     * @desc: Assigning the Root Admin Address to the superadmin\n     * @param: super_admin => Address of the Super Admin\n     */\n\n    function setRootAdmin(address super_admin) public {\n        require(owners.length == 0);\n        superadmin = super_admin;\n    }\n\n\n    /*\n     * @desc: Assigning the Root Admin Address to the superadmin\n     * @param: super_admin => Address of the Super Admin\n     */\n    function setAdmin(address super_admin) isAnyOwner public {\n        superadmin = super_admin;\n    }\n\n\n    /*\n     * @desc: Creation of Additional Owners to the owners list and map with the boolean value\n     * @param: _newAdmin => Address of the new Admin to added\n     */\n\n    function addAdmin(address _newAdmin) isAnyOwner isNotExistOwner(_newAdmin) public {\n        owners.push(_newAdmin);\n        ownersMapping[_newAdmin] = true;\n        emit AddAdmin(_newAdmin);\n        for (uint i = 0; i < transactList.length; i++)\n        {\n            if (transact[transactList[i]].executed == false)\n            {\n                delete transact[transactList[i]];\n                delete transactList[i];\n            }\n        }\n    }\n\n\n    /*\n     * @desc: Returns True if The given address is owner , false otherwise\n     * @param: admin => Address of the sender to be checked\n     */\n    function isAdmin(address admin) public constant returns (bool) {\n        return ownersMapping[admin];\n    }\n\n\n    /*\n     * @desc: Removal of the Owner from the Owner list Done by any one of the Other Owner but not themself\n     * @param: _rmAdmin => Address of the admin to be removed\n     */\n    function removeAdmin(address _rmAdmin) isAnyOwner isOwner(_rmAdmin) isnotSame(_rmAdmin) public {\n        for (uint i = 0; i < owners.length; i++) {\n            if (owners[i] == _rmAdmin) {\n                delete owners[i];\n                delete ownersMapping[_rmAdmin];\n                owners.length--;\n                emit RemoveAdmin(_rmAdmin);\n                return;\n            }\n        }\n    }\n\n\n\n    /*\n     * @desc: Returns the investor list\n     */\n    function investorList() public constant returns (address[]){\n        return investor;\n    }\n\n\n    /*\n     * @desc: Returns the Admin Owners list\n     */\n    function adminList() public constant returns (address[]){\n        return owners;\n    }\n\n    /*\n     * @desc: fund function is used to invest a particular amount to the owner\n     * @return: true if fund is transferred , false otherwise\n     */\n\n    function fund() isNotOwner public payable returns (bool) {\n        if (msg.value <= 0) {\n            return false;\n        }\n        totalAmount += msg.value;\n        investorMapping[msg.sender] += msg.value;\n        investor.push(msg.sender);\n        return true;\n    }\n\n    /*\n     * @desc: Returns the total amount of balance which the owner had\n     * @return: total value\n     */\n    function getTotalBalance() public constant returns (uint256) {\n        return totalAmount;\n\n    }\n\n\n    /*\n     *@desc:  Returns the total amount that the investor invested to the owner\n     * @return: value\n     */\n    function getinvestedBalance(address invest) public constant returns (uint256) {\n        return investorMapping[invest];\n\n    }\n\n    /*\n     * @desc:  Check the owners approval and if all owner's approved, requested amount will be transferred\n     * @param: invest => Transaction hash\n     */\n    function confirm(bytes32 invest) isAnyOwner public {\n        transact[invest].approval[msg.sender] = true;\n        uint count = 0;\n        for (uint i = 0; i < owners.length; i++) {\n            if (transact[invest].approval[owners[i]] == true) {\n                count = count + 1;\n            }\n        }\n        if (count == owners.length) {\n            transact[invest].destination.transfer(transact[invest].value);\n            transact[invest].executed = true;\n            totalAmount -= transact[invest].value;\n            transactList.push(invest);\n            investorsuccess[transact[invest].destination].push(invest);\n            investorMapping[transact[invest].destination] -= transact[invest].value;\n        }\n    }\n    /*\n     * @desc: Returns the Transaction list\n     * @return: list of transaction hash values\n     */\n    function getlist() constant public returns (bytes32[]){\n        return transactList;\n    }\n\n    /*\n     * @desc: Returns the number of investors\n     * @return: value\n     */\n    function getinvestorcount() public constant returns (uint256){\n        return investor.length;\n    }\n\n    /*\n     * @desc: Returns the number of successful transactions\n     * @return: value\n     */\n    function successtransact() public constant returns (uint256){\n        return transactList.length;\n    }\n\n    /*\n     * @desc: Returns the list of transaction hash that has been requested\n     * @return: list of Transaction hash\n     */\n    function getwithdraw() constant public returns (bytes32[]){\n        return withdrawList;\n    }\n\n    /*\n     * @desc: Returns the status of the transaction\n     * @return: boolean value\n    */\n    function getstatus(bytes32 txnhash) constant public returns (bool){\n        return transact[txnhash].executed;\n    }\n\n    /*\n     * @desc: investor will send a request to withdraw a particular amount\n     * @param: amt => amount to be withdraw\n     * @param: data => reason for withdraw\n     * @return: transaction hash generated\n     */\n    function withdraw(uint amt, bytes data) payable isInvestor(msg.sender) isLimit(amt) public returns (bytes32){\n        bytes32 txHash = keccak256(owners, msg.sender, amt, data);\n        transact[txHash].destination = msg.sender;\n        transact[txHash].value = amt;\n        transact[txHash].data = data;\n        withdrawList.push(txHash);\n        investorMap[msg.sender].push(txHash);\n        emit TransactionHashGenerated(txHash, msg.sender);\n        return txHash;\n    }\n\n    /*\n     * @desc: If need to destroy the contract , the total amount will be transferred to the super admin address and the contract will be closed\n     */\n    function destroy() isAnyOwner public {\n        selfdestruct(superadmin);\n    }\n\n    /*\n     * @desc: get details of the particular transaction\n     * @param: Transaction hash mapped to the transaction\n     * @return: Details of the transaction\n     */\n    function getdetails(bytes32 txn) public constant returns (address, uint, bytes, bool){\n        return (transact[txn].destination, transact[txn].value, transact[txn].data, transact[txn].executed);\n    }\n\n    /*\n     * @desc: get count of the successful transaction\n     * @param: invest => address of the investor\n     * @return: count of the successful transaction\n     */\n    function getsuccesscount(address invest) public constant returns (uint256){\n        return investorsuccess[invest].length;\n    }\n\n\n    /*\n     * @desc: get transaction list of the particular investor\n     * @param: invest => address of the investor\n     * @return: list of transaction hash for the particular investor\n     */\n    function transactList(address invest) public constant returns (bytes32[])\n    {\n        return investorMap[invest];\n    }\n\n}\n",
  "sourcePath": "/home/ionixx/Downloads/Multisig/contracts/MultiSignature.sol",
  "compiler": {
    "name": "solc",
    "version": "0.4.23+commit.124ca40d.Emscripten.clang"
  },
  "schemaVersion": "2.0.0",
  "updatedAt": "2018-05-14T14:14:53.263Z"
}