{
  "contractName": "TokenERC20",
  "abi": [
    {
      "constant": true,
      "inputs": [],
      "name": "name",
      "outputs": [
        {
          "name": "",
          "type": "string"
        }
      ],
      "payable": false,
      "stateMutability": "view",
      "type": "function"
    },
    {
      "constant": true,
      "inputs": [],
      "name": "totalSupply",
      "outputs": [
        {
          "name": "",
          "type": "uint256"
        }
      ],
      "payable": false,
      "stateMutability": "view",
      "type": "function"
    },
    {
      "constant": true,
      "inputs": [],
      "name": "sell_rate",
      "outputs": [
        {
          "name": "",
          "type": "uint256"
        }
      ],
      "payable": false,
      "stateMutability": "view",
      "type": "function"
    },
    {
      "constant": true,
      "inputs": [],
      "name": "decimals",
      "outputs": [
        {
          "name": "",
          "type": "uint8"
        }
      ],
      "payable": false,
      "stateMutability": "view",
      "type": "function"
    },
    {
      "constant": true,
      "inputs": [
        {
          "name": "",
          "type": "address"
        }
      ],
      "name": "balanceOf",
      "outputs": [
        {
          "name": "",
          "type": "uint256"
        }
      ],
      "payable": false,
      "stateMutability": "view",
      "type": "function"
    },
    {
      "constant": true,
      "inputs": [],
      "name": "buy_rate",
      "outputs": [
        {
          "name": "",
          "type": "uint256"
        }
      ],
      "payable": false,
      "stateMutability": "view",
      "type": "function"
    },
    {
      "constant": true,
      "inputs": [],
      "name": "owner",
      "outputs": [
        {
          "name": "",
          "type": "address"
        }
      ],
      "payable": false,
      "stateMutability": "view",
      "type": "function"
    },
    {
      "constant": true,
      "inputs": [],
      "name": "symbol",
      "outputs": [
        {
          "name": "",
          "type": "string"
        }
      ],
      "payable": false,
      "stateMutability": "view",
      "type": "function"
    },
    {
      "constant": true,
      "inputs": [
        {
          "name": "",
          "type": "address"
        },
        {
          "name": "",
          "type": "address"
        }
      ],
      "name": "allowance",
      "outputs": [
        {
          "name": "",
          "type": "uint256"
        }
      ],
      "payable": false,
      "stateMutability": "view",
      "type": "function"
    },
    {
      "constant": false,
      "inputs": [
        {
          "name": "newOwner",
          "type": "address"
        }
      ],
      "name": "transferOwnership",
      "outputs": [],
      "payable": false,
      "stateMutability": "nonpayable",
      "type": "function"
    },
    {
      "inputs": [
        {
          "name": "initialSupply",
          "type": "uint256"
        },
        {
          "name": "tokenName",
          "type": "string"
        },
        {
          "name": "tokenSymbol",
          "type": "string"
        }
      ],
      "payable": false,
      "stateMutability": "nonpayable",
      "type": "constructor"
    },
    {
      "anonymous": false,
      "inputs": [
        {
          "indexed": true,
          "name": "from",
          "type": "address"
        },
        {
          "indexed": true,
          "name": "to",
          "type": "address"
        },
        {
          "indexed": false,
          "name": "value",
          "type": "uint256"
        }
      ],
      "name": "Transfer",
      "type": "event"
    },
    {
      "anonymous": false,
      "inputs": [
        {
          "indexed": true,
          "name": "from",
          "type": "address"
        },
        {
          "indexed": false,
          "name": "value",
          "type": "uint256"
        }
      ],
      "name": "Burn",
      "type": "event"
    },
    {
      "constant": false,
      "inputs": [],
      "name": "getTokenDetails",
      "outputs": [
        {
          "name": "",
          "type": "uint256"
        },
        {
          "name": "",
          "type": "string"
        },
        {
          "name": "",
          "type": "string"
        }
      ],
      "payable": false,
      "stateMutability": "nonpayable",
      "type": "function"
    },
    {
      "constant": false,
      "inputs": [
        {
          "name": "user_address",
          "type": "address"
        }
      ],
      "name": "getBalance",
      "outputs": [
        {
          "name": "",
          "type": "uint256"
        }
      ],
      "payable": false,
      "stateMutability": "nonpayable",
      "type": "function"
    },
    {
      "constant": false,
      "inputs": [
        {
          "name": "_to",
          "type": "address"
        },
        {
          "name": "_value",
          "type": "uint256"
        }
      ],
      "name": "transfer",
      "outputs": [],
      "payable": false,
      "stateMutability": "nonpayable",
      "type": "function"
    },
    {
      "constant": false,
      "inputs": [
        {
          "name": "newSellPrice",
          "type": "uint256"
        },
        {
          "name": "newBuyPrice",
          "type": "uint256"
        }
      ],
      "name": "setPrices",
      "outputs": [],
      "payable": false,
      "stateMutability": "nonpayable",
      "type": "function"
    },
    {
      "constant": false,
      "inputs": [],
      "name": "getSellRate",
      "outputs": [
        {
          "name": "",
          "type": "uint256"
        }
      ],
      "payable": false,
      "stateMutability": "nonpayable",
      "type": "function"
    },
    {
      "constant": false,
      "inputs": [],
      "name": "getBuyRate",
      "outputs": [
        {
          "name": "",
          "type": "uint256"
        }
      ],
      "payable": false,
      "stateMutability": "nonpayable",
      "type": "function"
    },
    {
      "constant": false,
      "inputs": [],
      "name": "buy",
      "outputs": [
        {
          "name": "_tokens",
          "type": "uint256"
        }
      ],
      "payable": true,
      "stateMutability": "payable",
      "type": "function"
    },
    {
      "constant": false,
      "inputs": [
        {
          "name": "token",
          "type": "uint256"
        }
      ],
      "name": "sell",
      "outputs": [
        {
          "name": "sell_amount",
          "type": "uint256"
        }
      ],
      "payable": false,
      "stateMutability": "nonpayable",
      "type": "function"
    },
    {
      "constant": false,
      "inputs": [
        {
          "name": "_from",
          "type": "address"
        },
        {
          "name": "_to",
          "type": "address"
        },
        {
          "name": "_value",
          "type": "uint256"
        }
      ],
      "name": "transferFrom",
      "outputs": [
        {
          "name": "success",
          "type": "bool"
        }
      ],
      "payable": false,
      "stateMutability": "nonpayable",
      "type": "function"
    },
    {
      "constant": false,
      "inputs": [
        {
          "name": "_spender",
          "type": "address"
        },
        {
          "name": "_value",
          "type": "uint256"
        }
      ],
      "name": "approve",
      "outputs": [
        {
          "name": "success",
          "type": "bool"
        }
      ],
      "payable": false,
      "stateMutability": "nonpayable",
      "type": "function"
    },
    {
      "constant": false,
      "inputs": [
        {
          "name": "_spender",
          "type": "address"
        },
        {
          "name": "_value",
          "type": "uint256"
        },
        {
          "name": "_extraData",
          "type": "bytes"
        }
      ],
      "name": "approveAndCall",
      "outputs": [
        {
          "name": "success",
          "type": "bool"
        }
      ],
      "payable": false,
      "stateMutability": "nonpayable",
      "type": "function"
    },
    {
      "constant": false,
      "inputs": [
        {
          "name": "_value",
          "type": "uint256"
        }
      ],
      "name": "burn",
      "outputs": [
        {
          "name": "success",
          "type": "bool"
        }
      ],
      "payable": false,
      "stateMutability": "nonpayable",
      "type": "function"
    },
    {
      "constant": false,
      "inputs": [
        {
          "name": "_from",
          "type": "address"
        },
        {
          "name": "_value",
          "type": "uint256"
        }
      ],
      "name": "burnFrom",
      "outputs": [
        {
          "name": "success",
          "type": "bool"
        }
      ],
      "payable": false,
      "stateMutability": "nonpayable",
      "type": "function"
    }
  ],
  "bytecode": "0x60806040526012600360006101000a81548160ff021916908360ff16021790555066038d7ea4c6800060055566038d7ea4c680006006553480156200004357600080fd5b5060405162001d6a38038062001d6a833981018060405281019080805190602001909291908051820192919060200180518201929190505050336000806101000a81548173ffffffffffffffffffffffffffffffffffffffff021916908373ffffffffffffffffffffffffffffffffffffffff160217905550600360009054906101000a900460ff1660ff16600a0a8302600481905550600454600760003373ffffffffffffffffffffffffffffffffffffffff1673ffffffffffffffffffffffffffffffffffffffff168152602001908152602001600020819055508160019080519060200190620001389291906200015b565b508060029080519060200190620001519291906200015b565b505050506200020a565b828054600181600116156101000203166002900490600052602060002090601f016020900481019282601f106200019e57805160ff1916838001178555620001cf565b82800160010185558215620001cf579182015b82811115620001ce578251825591602001919060010190620001b1565b5b509050620001de9190620001e2565b5090565b6200020791905b8082111562000203576000816000905550600101620001e9565b5090565b90565b611b50806200021a6000396000f300608060405260043610610133576000357c0100000000000000000000000000000000000000000000000000000000900463ffffffff16806305fefda71461013857806306fdde031461016f578063095ea7b3146101ff57806318160ddd14610264578063213bce9c1461028f578063226fd9eb146102ba57806323b872dd146102e5578063313ce5671461036a5780633d35d7ba1461039b57806342966c68146103c657806370a082311461040b57806379cc6790146104625780637b04ebba146104c75780638da5cb5b146104f257806395d89b4114610549578063a6f2ae3a146105d9578063a9059cbb146105f7578063cae9ca5114610644578063dd62ed3e146106ef578063e4849b3214610766578063f2fde38b146107a7578063f8b2cb4f146107ea578063ff332ab714610841575b600080fd5b34801561014457600080fd5b5061016d6004803603810190808035906020019092919080359060200190929190505050610944565b005b34801561017b57600080fd5b506101846109b1565b6040518080602001828103825283818151815260200191508051906020019080838360005b838110156101c45780820151818401526020810190506101a9565b50505050905090810190601f1680156101f15780820380516001836020036101000a031916815260200191505b509250505060405180910390f35b34801561020b57600080fd5b5061024a600480360381019080803573ffffffffffffffffffffffffffffffffffffffff16906020019092919080359060200190929190505050610a4f565b604051808215151515815260200191505060405180910390f35b34801561027057600080fd5b50610279610adc565b6040518082815260200191505060405180910390f35b34801561029b57600080fd5b506102a4610ae2565b6040518082815260200191505060405180910390f35b3480156102c657600080fd5b506102cf610ae8565b6040518082815260200191505060405180910390f35b3480156102f157600080fd5b50610350600480360381019080803573ffffffffffffffffffffffffffffffffffffffff169060200190929190803573ffffffffffffffffffffffffffffffffffffffff16906020019092919080359060200190929190505050610af2565b604051808215151515815260200191505060405180910390f35b34801561037657600080fd5b5061037f610c1f565b604051808260ff1660ff16815260200191505060405180910390f35b3480156103a757600080fd5b506103b0610c32565b6040518082815260200191505060405180910390f35b3480156103d257600080fd5b506103f160048036038101908080359060200190929190505050610c3c565b604051808215151515815260200191505060405180910390f35b34801561041757600080fd5b5061044c600480360381019080803573ffffffffffffffffffffffffffffffffffffffff169060200190929190505050610d40565b6040518082815260200191505060405180910390f35b34801561046e57600080fd5b506104ad600480360381019080803573ffffffffffffffffffffffffffffffffffffffff16906020019092919080359060200190929190505050610d58565b604051808215151515815260200191505060405180910390f35b3480156104d357600080fd5b506104dc610f72565b6040518082815260200191505060405180910390f35b3480156104fe57600080fd5b50610507610f78565b604051808273ffffffffffffffffffffffffffffffffffffffff1673ffffffffffffffffffffffffffffffffffffffff16815260200191505060405180910390f35b34801561055557600080fd5b5061055e610f9d565b6040518080602001828103825283818151815260200191508051906020019080838360005b8381101561059e578082015181840152602081019050610583565b50505050905090810190601f1680156105cb5780820380516001836020036101000a031916815260200191505b509250505060405180910390f35b6105e161103b565b6040518082815260200191505060405180910390f35b34801561060357600080fd5b50610642600480360381019080803573ffffffffffffffffffffffffffffffffffffffff1690602001909291908035906020019092919050505061120c565b005b34801561065057600080fd5b506106d5600480360381019080803573ffffffffffffffffffffffffffffffffffffffff16906020019092919080359060200190929190803590602001908201803590602001908080601f016020809104026020016040519081016040528093929190818152602001838380828437820191505050505050919291929050505061121b565b604051808215151515815260200191505060405180910390f35b3480156106fb57600080fd5b50610750600480360381019080803573ffffffffffffffffffffffffffffffffffffffff169060200190929190803573ffffffffffffffffffffffffffffffffffffffff16906020019092919050505061139e565b6040518082815260200191505060405180910390f35b34801561077257600080fd5b50610791600480360381019080803590602001909291905050506113c3565b6040518082815260200191505060405180910390f35b3480156107b357600080fd5b506107e8600480360381019080803573ffffffffffffffffffffffffffffffffffffffff1690602001909291905050506115bd565b005b3480156107f657600080fd5b5061082b600480360381019080803573ffffffffffffffffffffffffffffffffffffffff16906020019092919050505061165b565b6040518082815260200191505060405180910390f35b34801561084d57600080fd5b506108566116a4565b604051808481526020018060200180602001838103835285818151815260200191508051906020019080838360005b838110156108a0578082015181840152602081019050610885565b50505050905090810190601f1680156108cd5780820380516001836020036101000a031916815260200191505b50838103825284818151815260200191508051906020019080838360005b838110156109065780820151818401526020810190506108eb565b50505050905090810190601f1680156109335780820380516001836020036101000a031916815260200191505b509550505050505060405180910390f35b6000809054906101000a900473ffffffffffffffffffffffffffffffffffffffff1673ffffffffffffffffffffffffffffffffffffffff163373ffffffffffffffffffffffffffffffffffffffff1614151561099f57600080fd5b81600581905550806006819055505050565b60018054600181600116156101000203166002900480601f016020809104026020016040519081016040528092919081815260200182805460018160011615610100020316600290048015610a475780601f10610a1c57610100808354040283529160200191610a47565b820191906000526020600020905b815481529060010190602001808311610a2a57829003601f168201915b505050505081565b600081600860003373ffffffffffffffffffffffffffffffffffffffff1673ffffffffffffffffffffffffffffffffffffffff16815260200190815260200160002060008573ffffffffffffffffffffffffffffffffffffffff1673ffffffffffffffffffffffffffffffffffffffff168152602001908152602001600020819055506001905092915050565b60045481565b60065481565b6000600654905090565b6000600860008573ffffffffffffffffffffffffffffffffffffffff1673ffffffffffffffffffffffffffffffffffffffff16815260200190815260200160002060003373ffffffffffffffffffffffffffffffffffffffff1673ffffffffffffffffffffffffffffffffffffffff168152602001908152602001600020548211151515610b7f57600080fd5b81600860008673ffffffffffffffffffffffffffffffffffffffff1673ffffffffffffffffffffffffffffffffffffffff16815260200190815260200160002060003373ffffffffffffffffffffffffffffffffffffffff1673ffffffffffffffffffffffffffffffffffffffff16815260200190815260200160002060008282540392505081905550610c148484846117f3565b600190509392505050565b600360009054906101000a900460ff1681565b6000600554905090565b600081600760003373ffffffffffffffffffffffffffffffffffffffff1673ffffffffffffffffffffffffffffffffffffffff1681526020019081526020016000205410151515610c8c57600080fd5b81600760003373ffffffffffffffffffffffffffffffffffffffff1673ffffffffffffffffffffffffffffffffffffffff16815260200190815260200160002060008282540392505081905550816004600082825403925050819055503373ffffffffffffffffffffffffffffffffffffffff167fcc16f5dbb4873280815c1ee09dbd06736cffcc184412cf7a71a0fdb75d397ca5836040518082815260200191505060405180910390a260019050919050565b60076020528060005260406000206000915090505481565b600081600760008573ffffffffffffffffffffffffffffffffffffffff1673ffffffffffffffffffffffffffffffffffffffff1681526020019081526020016000205410151515610da857600080fd5b600860008473ffffffffffffffffffffffffffffffffffffffff1673ffffffffffffffffffffffffffffffffffffffff16815260200190815260200160002060003373ffffffffffffffffffffffffffffffffffffffff1673ffffffffffffffffffffffffffffffffffffffff168152602001908152602001600020548211151515610e3357600080fd5b81600760008573ffffffffffffffffffffffffffffffffffffffff1673ffffffffffffffffffffffffffffffffffffffff1681526020019081526020016000206000828254039250508190555081600860008573ffffffffffffffffffffffffffffffffffffffff1673ffffffffffffffffffffffffffffffffffffffff16815260200190815260200160002060003373ffffffffffffffffffffffffffffffffffffffff1673ffffffffffffffffffffffffffffffffffffffff16815260200190815260200160002060008282540392505081905550816004600082825403925050819055508273ffffffffffffffffffffffffffffffffffffffff167fcc16f5dbb4873280815c1ee09dbd06736cffcc184412cf7a71a0fdb75d397ca5836040518082815260200191505060405180910390a26001905092915050565b60055481565b6000809054906101000a900473ffffffffffffffffffffffffffffffffffffffff1681565b60028054600181600116156101000203166002900480601f0160208091040260200160405190810160405280929190818152602001828054600181600116156101000203166002900480156110335780601f1061100857610100808354040283529160200191611033565b820191906000526020600020905b81548152906001019060200180831161101657829003601f168201915b505050505081565b6000806000349150670de0b6b3a764000061105883600554611b09565b02905080600760003373ffffffffffffffffffffffffffffffffffffffff1673ffffffffffffffffffffffffffffffffffffffff1681526020019081526020016000206000828254019250508190555080600760008060009054906101000a900473ffffffffffffffffffffffffffffffffffffffff1673ffffffffffffffffffffffffffffffffffffffff1673ffffffffffffffffffffffffffffffffffffffff168152602001908152602001600020600082825403925050819055506000809054906101000a900473ffffffffffffffffffffffffffffffffffffffff1673ffffffffffffffffffffffffffffffffffffffff163373ffffffffffffffffffffffffffffffffffffffff167fddf252ad1be2c89b69c2b068fc378daa952ba7f163c4a11628f55a4df523b3ef836040518082815260200191505060405180910390a36000809054906101000a900473ffffffffffffffffffffffffffffffffffffffff1673ffffffffffffffffffffffffffffffffffffffff166108fc349081150290604051600060405180830381858888f19350505050158015611203573d6000803e3d6000fd5b50809250505090565b6112173383836117f3565b5050565b60008084905061122b8585610a4f565b15611395578073ffffffffffffffffffffffffffffffffffffffff16638f4ffcb1338630876040518563ffffffff167c0100000000000000000000000000000000000000000000000000000000028152600401808573ffffffffffffffffffffffffffffffffffffffff1673ffffffffffffffffffffffffffffffffffffffff1681526020018481526020018373ffffffffffffffffffffffffffffffffffffffff1673ffffffffffffffffffffffffffffffffffffffff16815260200180602001828103825283818151815260200191508051906020019080838360005b8381101561132557808201518184015260208101905061130a565b50505050905090810190601f1680156113525780820380516001836020036101000a031916815260200191505b5095505050505050600060405180830381600087803b15801561137457600080fd5b505af1158015611388573d6000803e3d6000fd5b5050505060019150611396565b5b509392505050565b6008602052816000526040600020602052806000526040600020600091509150505481565b60008082600760003373ffffffffffffffffffffffffffffffffffffffff1673ffffffffffffffffffffffffffffffffffffffff168152602001908152602001600020541015151561141457600080fd5b82600760008060009054906101000a900473ffffffffffffffffffffffffffffffffffffffff1673ffffffffffffffffffffffffffffffffffffffff1673ffffffffffffffffffffffffffffffffffffffff1681526020019081526020016000206000828254019250508190555082600760003373ffffffffffffffffffffffffffffffffffffffff1673ffffffffffffffffffffffffffffffffffffffff168152602001908152602001600020600082825403925050819055506006546114e484670de0b6b3a7640000611b09565b0290503373ffffffffffffffffffffffffffffffffffffffff166108fc829081150290604051600060405180830381858888f1935050505015801561152d573d6000803e3d6000fd5b506000809054906101000a900473ffffffffffffffffffffffffffffffffffffffff1673ffffffffffffffffffffffffffffffffffffffff163373ffffffffffffffffffffffffffffffffffffffff167fddf252ad1be2c89b69c2b068fc378daa952ba7f163c4a11628f55a4df523b3ef856040518082815260200191505060405180910390a380915050919050565b6000809054906101000a900473ffffffffffffffffffffffffffffffffffffffff1673ffffffffffffffffffffffffffffffffffffffff163373ffffffffffffffffffffffffffffffffffffffff1614151561161857600080fd5b806000806101000a81548173ffffffffffffffffffffffffffffffffffffffff021916908373ffffffffffffffffffffffffffffffffffffffff16021790555050565b6000600760008373ffffffffffffffffffffffffffffffffffffffff1673ffffffffffffffffffffffffffffffffffffffff168152602001908152602001600020549050919050565b600060608060045460016002818054600181600116156101000203166002900480601f0160208091040260200160405190810160405280929190818152602001828054600181600116156101000203166002900480156117455780601f1061171a57610100808354040283529160200191611745565b820191906000526020600020905b81548152906001019060200180831161172857829003601f168201915b50505050509150808054600181600116156101000203166002900480601f0160208091040260200160405190810160405280929190818152602001828054600181600116156101000203166002900480156117e15780601f106117b6576101008083540402835291602001916117e1565b820191906000526020600020905b8154815290600101906020018083116117c457829003601f168201915b50505050509050925092509250909192565b6000808373ffffffffffffffffffffffffffffffffffffffff161415151561181a57600080fd5b81600760008673ffffffffffffffffffffffffffffffffffffffff1673ffffffffffffffffffffffffffffffffffffffff168152602001908152602001600020541015151561186857600080fd5b600760008473ffffffffffffffffffffffffffffffffffffffff1673ffffffffffffffffffffffffffffffffffffffff1681526020019081526020016000205482600760008673ffffffffffffffffffffffffffffffffffffffff1673ffffffffffffffffffffffffffffffffffffffff16815260200190815260200160002054011115156118f657600080fd5b600760008473ffffffffffffffffffffffffffffffffffffffff1673ffffffffffffffffffffffffffffffffffffffff16815260200190815260200160002054600760008673ffffffffffffffffffffffffffffffffffffffff1673ffffffffffffffffffffffffffffffffffffffff1681526020019081526020016000205401905081600760008673ffffffffffffffffffffffffffffffffffffffff1673ffffffffffffffffffffffffffffffffffffffff1681526020019081526020016000206000828254039250508190555081600760008573ffffffffffffffffffffffffffffffffffffffff1673ffffffffffffffffffffffffffffffffffffffff168152602001908152602001600020600082825401925050819055508273ffffffffffffffffffffffffffffffffffffffff168473ffffffffffffffffffffffffffffffffffffffff167fddf252ad1be2c89b69c2b068fc378daa952ba7f163c4a11628f55a4df523b3ef846040518082815260200191505060405180910390a380600760008573ffffffffffffffffffffffffffffffffffffffff1673ffffffffffffffffffffffffffffffffffffffff16815260200190815260200160002054600760008773ffffffffffffffffffffffffffffffffffffffff1673ffffffffffffffffffffffffffffffffffffffff1681526020019081526020016000205401141515611b0357fe5b50505050565b6000808284811515611b1757fe5b04905080915050929150505600a165627a7a7230582010e33b3ed945c50926ea45c0dcb4d817a95868b787e843a338f2153cb13cabdc0029",
  "source": "pragma solidity ^0.4.23;\n\n/**\n * SafeMath\n * Math operations with safety checks that throw on error\n */\nlibrary SafeMath {\n    /**\n    * Integer multiplication of two numbers.\n    */\n    function mul(uint256 a, uint256 b) internal pure returns (uint256) {\n        uint256 c = a * b;\n        assert(a == 0 || c / a == b);\n        return c;\n    }\n\n    /**\n    * Integer addition of two numbers.\n    */\n    function add(uint256 a, uint256 b) internal pure returns (uint256) {\n        uint256 c = a + b;\n        assert(c >= a);\n        return c;\n    }\n    /**\n    * Integer division of two numbers.\n    */\n    function div(uint256 a, uint256 b) internal pure returns (uint256) {\n        // assert(b > 0); // Solidity automatically throws when dividing by 0\n        uint256 c = a / b;\n        // assert(a == b * c + a % b); // There is no case in which this doesn't hold\n        return c;\n    }\n}\n\ncontract owned {\n    address public owner;\n\n    constructor() internal {\n        owner = msg.sender;\n    }\n\n    modifier onlyOwner {\n        require(msg.sender == owner);\n        _;\n    }\n\n    function transferOwnership(address newOwner) onlyOwner public {\n        owner = newOwner;\n    }\n}\n\n    interface tokenRecipient {\n        function receiveApproval(address _from, uint256 _value, address _token, bytes _extraData)  external;}\n\n    /**\n     * To check whether the crowdsale is active or not\n     */\n\n    interface ico{\n        function isActive() external returns (bool);\n    }\ncontract TokenERC20 is owned  {\n\n    string public name;\n    string public symbol;\n    uint8 public decimals = 18;\n    uint256 public totalSupply;\n    uint256 public buy_rate = 1000000000000000;\n    uint256 public sell_rate = 1000000000000000;\n\n    mapping(address => uint256) public balanceOf;\n    mapping(address => mapping(address => uint256)) public allowance;\n\n    event Transfer(address indexed from, address indexed to, uint256 value);\n\n    event Burn(address indexed from, uint256 value);\n\n    /**\n     * Constructor function\n     *\n     * Initializes contract with initial supply tokens to the creator of the contract\n     */\n    constructor(\n        uint256 initialSupply,\n        string tokenName,\n        string tokenSymbol\n    ) public {\n        totalSupply = initialSupply * 10 ** uint256(decimals);\n        balanceOf[msg.sender] = totalSupply;\n        name = tokenName;\n        symbol = tokenSymbol;\n    }\n\n    function getTokenDetails() public returns(uint256, string , string){\n        return (totalSupply, name, symbol);\n    }\n\n    /**\n     * Internal transfer, only can be called by this contract\n     */\n    function _transfer(address _from, address _to, uint _value) internal {\n        // Prevent transfer to 0x0 address. Use burn() instead\n        require(_to != 0x0);\n        // Check if the sender has enough\n        require(balanceOf[_from] >= _value);\n        // Check for overflows\n        require(balanceOf[_to] + _value > balanceOf[_to]);\n        // Save this for an assertion in the future\n        uint previousBalances = balanceOf[_from] + balanceOf[_to];\n        // Subtract from the sender\n        balanceOf[_from] -= _value;\n        // Add the same to the recipient\n        balanceOf[_to] += _value;\n        emit Transfer(_from, _to, _value);\n        // Asserts are used to use static analysis to find bugs in your code. They should never fail\n        assert(balanceOf[_from] + balanceOf[_to] == previousBalances);\n    }\n\n    function getBalance(address user_address) public returns(uint256){\n        return balanceOf[user_address];\n    }\n\n    /**\n     * Transfer tokens\n     *\n     * Send `_value` tokens to `_to` from your account\n     *\n     * @param _to The address of the recipient\n     * @param _value the amount to send\n     */\n    function transfer(address _to, uint256 _value) public {\n        _transfer(msg.sender, _to, _value);\n    }\n\n    /**\n    * Allow users to buy tokens for `newBuyPrice` eth and sell tokens for `newSellPrice` eth\n    * @param newSellPrice Price the users can sell to the contract\n    * @param newBuyPrice Price users can buy from the contract\n    */\n    function setPrices(uint256 newSellPrice, uint256 newBuyPrice) onlyOwner public {\n        buy_rate = newSellPrice;\n        sell_rate = newBuyPrice;\n    }\n\n    function getSellRate() public returns(uint256){\n        return sell_rate;\n    }\n\n    function getBuyRate() public returns(uint256){\n        return buy_rate;\n    }\n\n    /**\n    * Buy token from contract\n    */\n    function buy() payable public returns (uint256 _tokens) {\n        // Calculate tokens to sell\n        uint256 weiAmount = msg.value;\n        uint256 tokens = SafeMath.div(weiAmount, buy_rate) * 1 ether;\n        balanceOf[msg.sender] += tokens;\n        balanceOf[owner] -= tokens;\n        emit Transfer(msg.sender, owner, tokens);\n        owner.transfer(msg.value);\n        return tokens;\n    }\n\n    /**\n    * Sell token from contract\n    */\n    function sell(uint256 token) public returns (uint256 sell_amount) {\n        require(balanceOf[msg.sender] >= token);\n        // checks if the sender has enough to sell\n        balanceOf[owner] += token;\n        // adds the amount to owner's balance\n        balanceOf[msg.sender] -= token;\n        uint256 revenue = SafeMath.div(token, 1 ether) * sell_rate;\n        msg.sender.transfer(revenue);\n        emit Transfer(msg.sender, owner, token);\n        return revenue;\n\n    }\n\n    /**\n     * Transfer tokens from other address\n     *\n     * Send `_value` tokens to `_to` in behalf of `_from`\n     *\n     * @param _from The address of the sender\n     * @param _to The address of the recipient\n     * @param _value the amount to send\n     */\n    function transferFrom(address _from, address _to, uint256 _value) public returns (bool success) {\n        require(_value <= allowance[_from][msg.sender]);\n        // Check allowance\n        allowance[_from][msg.sender] -= _value;\n        _transfer(_from, _to, _value);\n        return true;\n    }\n\n    /**\n     * Set allowance for other address\n     *\n     * Allows `_spender` to spend no more than `_value` tokens in your behalf\n     *\n     * @param _spender The address authorized to spend\n     * @param _value the max amount they can spend\n     */\n    function approve(address _spender, uint256 _value) public\n    returns (bool success) {\n        allowance[msg.sender][_spender] = _value;\n        return true;\n    }\n\n    /**\n     * Set allowance for other address and notify\n     *\n     * Allows `_spender` to spend no more than `_value` tokens in your behalf, and then ping the contract about it\n     *\n     * @param _spender The address authorized to spend\n     * @param _value the max amount they can spend\n     * @param _extraData some extra information to send to the approved contract\n     */\n    function approveAndCall(address _spender, uint256 _value, bytes _extraData)\n    public\n    returns (bool success) {\n        tokenRecipient spender = tokenRecipient(_spender);\n        if (approve(_spender, _value)) {\n            spender.receiveApproval(msg.sender, _value, this, _extraData);\n            return true;\n        }\n    }\n\n    /**\n     * Destroy tokens\n     *\n     * Remove `_value` tokens from the system irreversibly\n     *\n     * @param _value the amount of money to burn\n     */\n    function burn(uint256 _value) public returns (bool success) {\n        require(balanceOf[msg.sender] >= _value);\n        // Check if the sender has enough\n        balanceOf[msg.sender] -= _value;\n        // Subtract from the sender\n        totalSupply -= _value;\n        // Updates totalSupply\n        emit Burn(msg.sender, _value);\n        return true;\n    }\n\n    /**\n     * Destroy tokens from other account\n     * Remove `_value` tokens from the system irreversibly on behalf of `_from`.\n     * @param _from the address of the sender\n     * @param _value the amount of money to burn\n     */\n    function burnFrom(address _from, uint256 _value) public returns (bool success) {\n        require(balanceOf[_from] >= _value);\n        // Check if the targeted balance is enough\n        require(_value <= allowance[_from][msg.sender]);\n        // Check allowance\n        balanceOf[_from] -= _value;\n        // Subtract from the targeted balance\n        allowance[_from][msg.sender] -= _value;\n        // Subtract from the sender's allowance\n        totalSupply -= _value;\n        // Update totalSupply\n        emit Burn(_from, _value);\n        return true;\n    }\n}\n\ncontract IonixxToken is owned, TokenERC20 {\n\n    ico  sale;\n    mapping(address => bool) public frozenAccount;\n    address contract_address;\n    /*\n     This generates a public event on the blockchain that will notify clients\n     */\n    event FrozenFunds(address target, bool frozen);\n\n    /*\n     Initializes contract with initial tokens to the creator of the contract\n     */\n    constructor(\n        uint256 initialSupply,\n        string tokenName,\n        string tokenSymbol\n    ) TokenERC20(initialSupply, tokenName, tokenSymbol) public {\n        owner = msg.sender;\n        contract_address = this;\n    }\n\n    \n\n    /**\n     * set Crowdsale Address function\n     * Assigning the sale with crowdsale Address\n     *  @param sale_address to connect with crowdsale contract\n     */\n    function set_saleaddress(address sale_address)onlyOwner public{\n        sale = ico(sale_address);\n    }\n    /*\n     Internal transfer, only can be called by this contract\n     */\n    function _transfer(address _from, address _to, uint _value) internal {\n        require(_to != 0x0);\n        // Prevent transfer to 0x0 address. Use burn() instead\n        require(balanceOf[_from] >= _value);\n        // Check if the sender has enough\n        require(balanceOf[_to] + _value > balanceOf[_to]);\n        // Check for overflows\n        require(!frozenAccount[_from]);\n        // Check if sender is frozen\n        require(!frozenAccount[_to]);\n        // Check if recipient is frozen\n        balanceOf[_from] -= _value;\n        // Subtract from the sender\n        balanceOf[_to] += _value;\n        // Add the same to the recipient\n        emit Transfer(_from, _to, _value);\n    }\n\n    /**\n    * Create `mintedAmount` tokens and send it to `target`\n    * @param target Address to receive the tokens\n    * @param mintedAmount the amount of tokens it will receive\n    */\n    function mintToken(address target, uint256 mintedAmount) onlyOwner public {\n        balanceOf[target] += mintedAmount;\n        totalSupply += mintedAmount;\n        emit Transfer(0, this, mintedAmount);\n        emit Transfer(this, target, mintedAmount);\n    }\n\n    /**\n     * `freeze? Prevent | Allow` `target` from sending & receiving tokens\n     * @param target Address to be frozen\n     * @param freeze either to freeze it or not\n     */\n    function freezeAccount(address target, bool freeze) onlyOwner public {\n        frozenAccount[target] = freeze;\n        emit FrozenFunds(target, freeze);\n    }\n\n    /**\n    * Code Logic for trade follows here\n    */\n\n    address public owner;\n\n    struct Order {\n        bool is_traded;\n        address issue_address;\n        address winner_address;\n        uint256 amountGive;\n        uint256 amountGet;\n        uint256 tokenGet;\n        uint256 tokenGive;\n    }\n\n    mapping(uint256 => Order) public orders_map;\n    uint256 public current_trade = 0;\n\n\n    event BitOrder(uint256 amountGive, uint256 tokenGet, address user, uint256 trade_reference);\n    event SellOrder(uint256 amountGet, uint256 tokenGive, address user, uint256 trade_reference);\n    event AskOrder(uint256 amountGet, uint256 tokenGive, address user, uint256 trade_reference);\n    event BuyOrder(uint256 amountGive, uint256 tokenGet, address user, uint256 trade_reference);\n    event BitOrderCancel(uint256 amountGive, uint256 tokenGet, address user, uint256 trade_reference);\n    event AskOrderCancel(uint256 amountGet, uint256 tokenGive, address user, uint256 trade_reference);\n\n    /**\n    * User throws an bit (ether) for getting IXCOIN\n    * @param tokenGet - Buying rate in token\n    */\n    function bit_order(uint256 tokenGet) payable public returns (uint256) {\n        require(!sale.isActive());\n        require(!frozenAccount[msg.sender]);\n        current_trade = current_trade + 1;\n        require(msg.value > 0);\n        // Selling rate in ether\n        // Get value from constructor, amountGive\n        uint256 amountCreditContract = msg.value;\n        orders_map[current_trade].issue_address = msg.sender;\n        orders_map[current_trade].amountGive = amountCreditContract;\n        orders_map[current_trade].tokenGet = tokenGet;\n        orders_map[current_trade].is_traded = false;\n\n        // Hold the ether\n        // contract_address.transfer(msg.value);\n        emit BitOrder( amountCreditContract, tokenGet, msg.sender, current_trade);\n        return current_trade;\n    }\n\n    /**\n    * User sells an IXCOIN for getting Ether\n    * @param trade_reference -  Reference ID for performing the trade\n    */\n    function sell_coin(uint256 trade_reference) payable public {\n        require(!sale.isActive());\n        require(!frozenAccount[msg.sender]);\n        address issuer = orders_map[trade_reference].issue_address;\n\n        require(orders_map[trade_reference].is_traded == false);\n        // Do calculation for buying the BitOrder ,actual value\n        uint256 tokenCreditIssuer = orders_map[trade_reference].tokenGet;\n        // Transfer the actual amount to the msg.sender\n        uint256 amountCreditWinner = orders_map[trade_reference].amountGive;\n        require(balanceOf[msg.sender] >= tokenCreditIssuer);\n        // Check if the sender has enough\n        require(balanceOf[msg.sender] + tokenCreditIssuer > balanceOf[msg.sender]);\n        //ETH Amount transfer\n        msg.sender.transfer(amountCreditWinner);\n        //Token transfer\n        transfer(issuer, tokenCreditIssuer);\n        orders_map[trade_reference].is_traded = true;\n        orders_map[trade_reference].winner_address = msg.sender;\n        emit SellOrder( amountCreditWinner, tokenCreditIssuer, msg.sender, trade_reference);\n\n    }\n    /**\n     * User asks ether for giving IXCOIN\n     * @param amountGet - Buying rate in ether\n     * @param tokenGive - Selling rate of token\n     */\n    function ask_order(uint256 amountGet, uint256 tokenGive) payable public returns (uint256) {\n        require(!sale.isActive());\n        require(!frozenAccount[msg.sender]);\n        current_trade = current_trade + 1;\n        orders_map[current_trade].issue_address = msg.sender;\n        orders_map[current_trade].amountGet = amountGet;\n        orders_map[current_trade].tokenGive = tokenGive;\n        orders_map[current_trade].is_traded = false;\n\n        uint256 tokenCreditContract = tokenGive;\n        // Do this from token contract\n        //contract_address.transfer(tokenCreditContract);\n        require(balanceOf[msg.sender] >= tokenCreditContract);\n        // Check if the sender has enough\n        require(balanceOf[msg.sender] + tokenCreditContract > balanceOf[msg.sender]);\n        // Check for overflows\n        // Send tokens to contract_address for holding value\n        transfer(contract_address, tokenCreditContract);\n\n        emit AskOrder(amountGet, tokenGive, msg.sender, current_trade);\n        return current_trade;\n    }\n\n    /**\n     * User buys an IXCOIN, by giving ether value\n     * @param trade_reference - Reference ID for performing the trade\n     */\n    function buy_coin(uint256 trade_reference) payable public {\n         require(!sale.isActive());\n        require(!frozenAccount[msg.sender]);\n        address issuer = orders_map[trade_reference].issue_address;\n        require(orders_map[trade_reference].is_traded == false);\n        // Do calculation for buying the AskOrder ,actual value to send to issuer\n        // Get value from constructor, amountGive\n        uint256 amountCreditIssuer = msg.value;\n\n        require(amountCreditIssuer == orders_map[trade_reference].amountGet);\n        // Transfer the actual token to the msg.sender\n        uint256 tokenCreditWinner = orders_map[trade_reference].tokenGive;\n        orders_map[trade_reference].winner_address = msg.sender;\n        orders_map[trade_reference].is_traded = true;\n        //ETH Amount transfer\n        issuer.transfer(amountCreditIssuer);\n        //Token transfer\n        _transfer(contract_address, msg.sender, tokenCreditWinner);\n        emit BuyOrder( amountCreditIssuer, tokenCreditWinner, msg.sender, trade_reference);\n    }\n\n    /**\n     * Cancel Bit Order\n     * @param trade_reference - Reference ID for performing the trade\n     */\n    function cancelBitOrder(uint256 trade_reference) public {\n         require(!sale.isActive());\n        require(orders_map[trade_reference].is_traded == false);\n        address issuer = orders_map[trade_reference].issue_address;\n        require(issuer == msg.sender);\n        require(orders_map[trade_reference].amountGive > 0);\n        require(orders_map[trade_reference].tokenGet > 0);\n\n        // transfer amount to issuer\n        issuer.transfer(orders_map[trade_reference].amountGive);\n        orders_map[trade_reference].is_traded = true;\n        emit BitOrderCancel(orders_map[trade_reference].amountGive, orders_map[trade_reference].tokenGet, msg.sender, trade_reference);\n\n    }\n\n    /**\n    * Cancel Ask Order\n    * @param trade_reference - Reference ID for performing the trade\n    */\n    function cancelAskOrder(uint256 trade_reference) public {\n         require(!sale.isActive());\n        require(orders_map[trade_reference].is_traded == false);\n        address issuer = orders_map[trade_reference].issue_address;\n        require(issuer == msg.sender);\n        require(orders_map[trade_reference].amountGet > 0);\n        require(orders_map[trade_reference].tokenGive > 0);\n\n        //transafer token\n        _transfer(contract_address, issuer, orders_map[trade_reference].tokenGive);\n        orders_map[trade_reference].is_traded = true;\n\n        emit AskOrderCancel(orders_map[trade_reference].amountGet, orders_map[trade_reference].tokenGive, msg.sender, trade_reference);\n    }\n\n    /**\n    * Gets Ether Balance for the given user address\n    */\n    function getEtherBalance(address addr) view public returns (uint256) {\n        return addr.balance;\n    }\n\n\n\n}",
  "sourcePath": "/home/ilak/Desktop/Truffle/contracts/IonixxToken.sol",
  "compiler": {
    "name": "solc",
    "version": "0.4.23+commit.124ca40d.Emscripten.clang"
  },
  "schemaVersion": "2.0.0",
  "updatedAt": "2018-05-11T12:26:12.688Z"
}